:02000000272AAD
:06000600000000000800EC
:10000C000F3083120313FC004730FD00FD0B0C284E
:0A001C00FC0B0C2800000000080097
:0E002600213083120313FD00FD0B1728080084
:10003400831603139818202800001A2864088312D2
:040044009900080017
:1000480083160313E41B2B28831288132D2883128D
:1000580088178316641B33288312081335288312E4
:1000680008178316E41A3B28831288123D28831246
:1000780088168316641A43288312081245288312A7
:1000880008166C18492808154A28081188150320ED
:1000980088118316E419532883128813552883126C
:1000A8008817831664195B28831208135D28831246
:1000B80008178316E41863288312881265288312A8
:1000C8008816831664186B28831208126D28831209
:1000D80008166C187128081572280811881503204D
:0E00E80088116C1C792806207A281320080045
:0E00F600831203136B088A006A088200080058
:10010400023083120313FC004930FD00FD0B8828E4
:0A011400FC0B882800000000080022
:10011E0083160313E301610884000008E2006208FD
:10012E00003A0319A5286208E4001A208316E30A90
:0E013E006308610784000008E20096280800AC
:10014C0083160313881108110812881208138813D8
:10015C0083128811081188130813881208120620BC
:10016C0006200620881608168815032088110620FC
:10017C008815032088110620881503208811062075
:10018C000812881503208811062088150320881171
:10019C0088128817881503208811062088130816E2
:1001AC008815032088110812881503208811062051
:1001BC00881503208811081688150320881106203D
:1001CC000812881503208811881708178816081636
:0C01DC0088150320881106206C14080010
:1001E8008316031398169030831298008316871786
:1001F800071383128C1E03291A08F000FD28080033
:10020800831203136C1083166108E40024206C1415
:020218000800DC
:0C021A008316031307118312071108005C
:10022600B93083160313E1008F200230FB0004303F
:10023600FC00BA30FD00FD0B1E29FC0B1E29FB0B32
:100246001E29000083126D088316E1008F200230FC
:10025600FB000430FC00BA30FD00FD0B3029FC0B1E
:100266003029FB0B302900001A30E4001A20023036
:10027600FB000430FC00BA30FD00FD0B4029FC0BEE
:0A0286004029FB0B4029000008008E
:0A02900083160313061486140800F9
:0C029A00831603138710831287100800DE
:1002A60083120313EE0183165E08F1000130F0009D
:1002B600710803196229F00D7010FF3E5C29700861
:1002C6008312ED0083165D08840070080005F100B6
:1002D60071080130031D0030F0006008F0060319B4
:1002E60090295F08003C03187D298220822083160E
:1002F600DF0374295D08840083126D080005F10090
:1003060071080130031D0030F00083166008F00606
:1003160003199029FF308312EE0083126E08F00055
:020326000800CD
:10032800A62001308316E40024200C308316E40054
:040338002420080075
:10033C007B208A110A128000840AEA0A0319EB0A4C
:08034C00F003031D9E290800C7
:10035400BC29803083120313ED00CF29C030ED0097
:10036400CF299430ED00CF29D430ED00CF2980304F
:10037400ED00CF29831203136D08013A0319AB2949
:100384006D08023A0319B0296D08033A0319B32919
:100394006D08043A0319B629B9296E03F0006D08F3
:1003A400F0077008ED0070088316E40024206C1038
:1003B4008316DD015D0883126F07840000080319AA
:1003C400EF2983165D0883126F07840000088316E3
:1003D400E10004218316DD0ADC2983126C14080071
:1003E40033308316031399001815F4200230FB00F0
:1003F4000430FC00BA30FD00FD0BFE29FC0BFE2985
:10040400FB0BFE29000020308316E1008F20023010
:10041400FB000430FC00BA30FD00FD0B0F2AFC0B7E
:100424000F2AFB0B0F2A0000AE30E1008F200230B0
:10043400FB000430FC00BA30FD00FD0B1F2AFC0B4E
:0A0444001F2AFB0B1F2A000008000E
:10044E002A239421F2210D214D21482101308312BE
:10045E00ED000130EE00D030EF00AA2106308316F9
:10046E00DD00DE010130DF00E001532170080319C9
:10047E00692A01308316E40024200130ED0001309A
:10048E00EE004030EF00AA213130ED0013210715A8
:10049E003330FB00BB30FC00DF30FD00FD0B552A76
:1004AE00FC0B552AFB0B552A0000000007110130EA
:1004BE008316E40024200130ED000130EE002430DC
:1004CE00EF00AA2106308316DD000130DE00013078
:1004DE00DF00E0015321700803199C2A01308316B6
:1004EE00E40024200130ED000130EE004F30EF002B
:1004FE00AA21A030ED00132187146630FB00763060
:10050E00FC00C130FD00FD0B8A2AFC0B8A2AFB0B76
:10051E008A2A871001308316E40024200130ED0072
:0E052E000130EE005D30EF00AA21352A9D2A33
:10065400203084004A3083120313F000A330EA00F0
:100664000230EB009E21A03084003D300313F000E3
:0C067400ED30EA000230EB009E2108008F
:08054600413454340D3400343B
:10054E00533479347334743465346D342034523406
:0A055E0065346134643479340034EC
:100568004134633463346534733473342034413430
:0E0578006C346C346F34773465346434003482
:100586004134633463346534733473342034413412
:0E0596006C346C346F34773465346434003464
:1005A40041346334633465347334733420344434F1
:0C05B40065346E346934653464340034FE
:1005C000533479347334743465346D342034523494
:0A05D000653461346434793400347A
:1005DA0041346334633465347334733420344434BB
:0C05EA0065346E346934653464340034C8
:1005F600413454342B3443344D34473446343D343B
:0606060031340D34003414
:10060C00413454342B3443344D34473453343D3417
:10061C0022342B34313432343334343435343634AC
:0E062C00373438343934303422340D3400344D
:10063A00533479347334743465346D342034523419
:0A064A0065346134643479340034FF
:02400E007A3BFB
:00000001FF
